:020000022000DC
:107000000000042089AA0600C1AA0600798D0600A6
:10701000C5AA0600858D06008B8D060000000000C5
:10702000000000000000000000000000D138030054
:10703000CDAA0600000000006B3903007B39030075
:1070400079EB0600E5430600D3AA0600D3AA0600A2
:10705000D3AA0600D3AA0600D3AA0600D3AA060024
:10706000D3AA0600D3AA0600D3AA0600D3AA060014
:10707000D3AA06000DED0600D3AA0600A95006000B
:10708000D3AA0600D3AA0600D3AA0600D3AA0600F4
:10709000D3AA0600D3AA0600D3AA0600D3AA0600E4
:1070A000D3AA0600D3AA0600D3AA0600D3AA0600D4
:1070B000D3AA0600D3AA06000000000000000000CA
:1070C000D3AA0600D3AA0600D3AA0600D3AA0600B4
:1070D000D3AA0600D3AA0600D3AA0600D3AA0600A4
:1070E000D3AA0600D3AA0600D3AA06000000000017
:1070F00000000000D3AA060000000000D3AA06008A
:107100000348044B834202D0034B03B11847704736
:10711000086C0020086C00200000000005480649AB
:10712000091A891001EBD171491002D0034B03B148
:1071300018477047086C0020086C00200000000011
:1071400010B5064C237843B9FFF7DAFF044B13B1AF
:107150000448AFF300800123237010BD086C0020A9
:107160000000000034CE070008B5054B1BB10549EF
:107170000548AFF30080BDE80840FFF7CFBF00BF70
:10718000000000000C6C002034CE0700154B002BD3
:1071900008BF134B9D46A3F5803A00218B460F464E
:1071A0001348144A121A4AF081FD0F4B002B00D0ED
:1071B00098470E4B002B00D0984700200021040078
:1071C0000D000D48002802D00C4842F075FB4AF033
:1071D00047FC200029000EF023FC42F06AFB00BFB0
:1071E0000000080000000420000000007D5903009A
:1071F000086C0020107D0120B998060000000000F6
:107200007047036808681847012A03D0022A03D090
:10721000002070470160FBE70B680360F8E7F0B4FB
:10722000D0E9014706687D10FF0706EB050044BF63
:1072300075592C59A446F0BC604710B50446006847
:1072400018B1237B0BB109F0AFF8204610BD0B68D5
:1072500003604B6843608B688360704708B51346D2
:107260008A00044901EB800118464AF0F7FC00202F
:1072700008BD00BF346C00202DE9F04705461B48CF
:10728000DFF87080DFF87090DFF870A009F08EF8FA
:107290000024D5E901239B1A9B1008FB03F3A342AA
:1072A0001DD92146484609F081F80C27674300267E
:1072B000D5E901239B1A9B1008FB03F39E420CD2D5
:1072C000D35903EB86030136186848F0FFFF0246E6
:1072D0000B46504609F06AF8EAE70134D9E704485A
:1072E00009F064F80020BDE8F08700BFCC4D07002E
:1072F000F3BF0700ABAAAAAAD44D0700DE4D0700D2
:1073000070B5054D13240C2606FB04500CF01AF83A
:1073100014F1FF34F8D270BD706D00201FB50B4919
:1073200001A802F09DFB0A4901A80CF00BF930B14D
:10733000084B0949094801221A700CF079F801A894
:107340000CF000F805B05DF804FB00BF606E002093
:10735000E7470700246C0020C74A0700246D00207F
:1073600010B5034B0360044602F0F4F8204610BD4C
:10737000A046070010B50446FFF7F2FF20460C2197
:1073800042F0D0FC204610BD2DE9F041884617465A
:107390001E468569044608F0EDFF6B68C8E90001E8
:1073A00013489847014630B1124808F0FFFF6FF0CC
:1073B0000500BDE8F0812B6939469847A8B96B698B
:1073C000A07A3146984780B994F90930012B01D051
:1073D0000020EEE76B690799207B984728B96B6915
:1073E0000699E07A98470028F2D06FF00200E0E7B3
:1073F00025740200884B070008B528B9064B074AD8
:1074000007485A2149F0B4FF30F8023CC01ABDE8E1
:10741000084008F0C9BF00BF7E5D07008A4E070024
:107420004C4D070038B505466B1E2B42084605D06B
:107430000C4B0D4A0D48372149F09AFF15B900232E
:10744000184638BD0029FAD06C1C0121204408F0F0
:10745000A9FF0028F3D004446B422340181A23F8F4
:10746000020CEDE7B14D0700B34E07004C4D07008D
:107470001FB54268B2F5803F10EE101A17D283682C
:10748000B3F5803F13D292B20068ADF800209BB2F2
:107490000190ADF80820039002AA6846ADF80230CA
:1074A000ADF80A3008F0E8FE05B05DF804FB0148CD
:1074B000FAE700BF0CFCFFFF73B505460E4600243B
:1074C0006B68A3420FD9A9682B6801FB04F001AADD
:1074D00003EB800008F0F8FE3368019A03EB8403A5
:1074E00001341A60ECE7002002B070BDF7B5054624
:1074F0000E4600246B68A34210D9A968286801FBD6
:1075000004F701AB6A4600EB870008F0F5FE33682C
:10751000009A03EB840301341A60EBE7002003B008
:10752000F0BDF7B505460E4600246B68A34210D99E
:10753000A968286801FB04F701AB6A4600EB8700E5
:1075400008F0ABFE3368009A03EB840301341A6041
:10755000EBE7002003B0F0BD2DE9F0410546202007
:1075600008F01EFFAF691E4BAD68036000230446A0
:10757000A846C0E90133C3609DB10C20684308F000
:107580000FFF0C22C4E9010002FB0502E2602B465A
:1075900000210C303BB140E9031140F8041C013BD1
:1075A000F7E72846EDE7A260C4E90433A361AE0023
:1075B0007DB1304608F0F4FEC4E904000644A6613B
:1075C0000023B8F1000F06D040F8043B08F1FF3863
:1075D000F7E72846F0E76661E7612046BDE8F081FD
:1075E000B04607002DE9F341074688461046194684
:1075F00015461E46FFF7B0FF002203680192009671
:1076000004465E6842462B463946B0472368054625
:10761000DB6820469847284602B0BDE8F08130B4C8
:1076200004680D46284611461A46234630BC1847C2
:107630000B4B70B504460360006908B108F0B4FE56
:10764000D4E90156AE4205D0286808B108F0ACFE76
:107650000C35F7E7606808B108F0A6FE204670BD5B
:10766000B046070010B50446FFF7E2FF204608F0D9
:107670009BFE204610BD10B58368044613B103225B
:1076800001469847204610BDCB68C3600BB15B68CC
:1076900018477047C3680BB19B681847704770B5AF
:1076A00004460E46154633B1036000232373C4E934
:1076B0000165204670BD02FB01F08000012108F049
:1076C00071FE01232060F1E7012970B5DFED2E7A0C
:1076D00002D8C2ED007A70BD8D08034604462E46DE
:1076E00010348EB114ED047A77EE877A14ED037AB4
:1076F00077EE877A14ED027A77EE877A14ED017AC5
:10770000013E77EE877AEBE700EB051001F0030608
:1077100000EB86060446B44204D0B4EC017A77EE5E
:10772000877AF8E707EE101AB8EE477AC7EE876A4D
:10773000DFED157A1033CDB113ED046A36EE666ACB
:10774000013DE6EE067A13ED036A36EE666AE6EE72
:10775000067A13ED026A36EE666AE6EE067A13EDF5
:10776000016A36EE666AE6EE067AE3E7844206D000
:10777000B0EC016A36EE666AE6EE067AF6E7C7EE28
:10778000876AC2ED006AA6E700000000F0B5426813
:107790004B682DED028B9A4283B004460F4640F0B1
:1077A0008D808B68012B40F0898000256368AB4297
:1077B00040F28980A16823689FED448A05FB01F0AF
:1077C00003EB80006A4608F07FFDA168236805FB93
:1077D00001F003EB800001AAFFF776FFA66823689B
:1077E0009DED007A05FB06F203EB8203B0081A4612
:1077F0000146F0EE488A103209B352ED047A77EE72
:10780000C77A013967EEA76AA7EEA68A52ED037A16
:1078100077EEC77A67EEA76AA7EEA68A52ED027ADC
:1078200077EEC77A67EEA76AA7EEA68A52ED017ACD
:1078300077EEC77A67EEA76AA7EEA68ADBE703EBC7
:10784000001306F0030203EB82029A4208D0F3EC25
:10785000017A77EEC77A67EEA76AA7EEA68AF4E701
:107860009DED017A67EE077A67EE877AF5EEC07ACA
:10787000F1EE10FA1FDB17EE900A49F009FC0190B7
:107880009DED017A3B68B5EE407AF1EE10FA1CBF2F
:1078900007EE906AF8EE677A03EB850318BFC8EE2F
:1078A000276A05F101050EBFC3ED008AC6EE877A8F
:1078B000C3ED007A7AE7CDED018AE1E7044803B031
:1078C000BDEC028BF0BD0020F9E700BF0000000016
:1078D00014FCFFFFF0B542684B682DED028B9A4215
:1078E00083B004460E467DD18B68012B7AD10025EA
:1078F000B0EE088A6368AB4279D9A168236805FBBA
:1079000001F003EB80006A4608F0DEFCA168236802
:1079100005FB01F003EB800001AAFFF7D5FEA2688A
:107920002368DDED006ADFED337A05FB02F103EB3E
:107930008103970819463846103108B311ED047ACF
:1079400037EE667A013827EE077AE7EE077A11ED0F
:10795000037A37EE667A27EE077AE7EE077A11EDBB
:10796000027A37EE667A27EE077AE7EE077A11EDAC
:10797000017A37EE667A27EE077AE7EE077ADBE7D9
:1079800003EB071302F0030103EB8101994208D0D6
:10799000B3EC017A37EE667A27EE077AE7EE077ADC
:1079A000F4E79DED017A336827EE077A03EB850350
:1079B000B5EE407AF1EE10FA1ABF06EE902AF8EE14
:1079C000666A0D4A8DED017A14BF87EEA66A1A60C9
:1079D00005F101051EBFC6EE077A77EEC87AC3ED42
:1079E000007A87E7054803B0BDEC028BF0BD0020AC
:1079F000F9E700BF00000000000040C014FCFFFFDA
:107A000070B50024054626462B6893F83C30A34207
:107A10000BD96B6853F8240028B10368DB689847DA
:107A20006B6843F824600134EEE770BD10B504467E
:107A30000430FFF7E5FFA06808F0B6FC204610BD53
:107A40002DE9F0470F469046054698B10669002497
:107A50004FF01409F36DA34210D9326E09FB0422D2
:107A60004346D2F80CA0126939462846D04718B9C7
:107A70000134EFE76FF00A00BDE8F0870020FBE774
:107A80002DE9F04F012ADDE9095B0FD1023D5A468D
:107A90000BEB830393422BD0016835F8024F096842
:107AA00001EB8401096842F8041BF3E70026344621
:107AB000B446B2421CD0D0F800E0DEE901710BEB15
:107AC000840803EB040901FB07C74C4513D035F8C4
:107AD00014A0BA450FD8DEF80010AAEB0C0A01EB8F
:107AE0008A0A0134DAF800A048F804ABA342ECD8C3
:107AF0000020BDE8F08F0136BC46DAE72DE9F04FF3
:107B00002DED028B89B098469DF85C30169D06934A
:107B10000E4608F02FFC074628890791800008F0E0
:107B20003FFC044648B94C4808F040FC6FF00A009E
:107B300009B0BDEC028BBDE8F08F01906B6800933B
:107B40002B89149A41463046FFF79AFFB5F808A0F2
:107B5000D5E9052104EB8A00234683420CD0B1EC21
:107B6000017AD3ED007AF2EC016A77EEC77A87EEFC
:107B7000A67AA3EC017AF0E72B8AED689FED378AAD
:107B8000DFED378A039304354FF00008039B43452C
:107B90003CD918EE909AA3460026B24521D955F853
:107BA000043CBBEC017A03EB8603D3ED007A77EE5D
:107BB000677A013617EE900A48F088FB02460B46BA
:107BC00048F0DCFBCDE90401484648F07FFB024663
:107BD0000B46DDE9040148F01BFA48F0C7FE814678
:107BE000DBE7484649F054FA2B46D3ED007A07EE1E
:107BF000100A77EE677A0835B4EE678AF1EE10FA6C
:107C0000C8BFB0EE678A08F10108BFE708F0B2FB11
:107C1000069B05460E4653B1C11B124808F0C6FB31
:107C200018EE100A08F0ACFB0F4808F0BFFB079BEA
:107C3000E81B66EB0301159B4FF47A72C3E914014C
:107C4000002348F0E3FE159BD86383ED0A8A2046A3
:107C500008F0AAFB00206BE7B647070000007A4453
:107C600000000000E9470700F3BF07002DE9F74FC8
:107C70004FF0000900900C4601934F464E46019B81
:107C800099457BD0009B21781D68D5E901320329F5
:107C900002FB03FA3DD009290FD001295FD1B900B9
:107CA0000022924563D02B6803EB820301321868EF
:107CB00063680B4404311860F3E74FF0000BD5E91B
:107CC000012353435B4507EB0B0852D92B68D4EDD6
:107CD000037A03EB8B0393ED007AC7EE277A0BF15F
:107CE000010B17EE900A49F019F907EE900AFDEE24
:107CF000E77A2269636817EE900A10447F28A8BFCC
:107D00007F206FF07F029042B8BF104603F8080052
:107D1000D5E74FF0000BD5E9012353435B4507EB53
:107D20000B0826D92B68D4ED037A03EB8B0393ED74
:107D3000007AC7EE277A0BF1010B17EE900A49F093
:107D4000EDF807EE900AFDEEE77A2269636817EE18
:107D5000900A104480F3080003F80800DBE70F489E
:107D600008F024FB6FF00C0003B0BDE8F08F07EBC8
:107D70000A08564409F10109474680E7A169B6EBB4
:107D8000910F08D0B14206D00548324608F00EFBEC
:107D90006FF01700E8E70020E6E700BF2348070080
:107DA00047480700D1E9013270B50C460178032934
:107DB00002FB03F231D0092916D0012946D181698D
:107DC000B2EB910F09D00029B8BF033189102248C6
:107DD00008F0ECFA6FF0170005E00A4641682068E9
:107DE00049F03CFF002070BD81699142EFD1002233
:107DF0009142F7D02368066990ED037A03EB820580
:107E000043689B569B1B07EE903AF8EEE77A0132E7
:107E100067EE877AC5ED007AEAE781699142D6D1AB
:107E200000229142DED02368066990ED037A03EBCD
:107E3000820543689B5C9B1B07EE903AF8EEE77A5D
:107E4000013267EE877AC5ED007AEAE7034808F069
:107E5000ADFA6FF00D00C6E7B2480700F44807001E
:107E60002DE9F84F2DED048B0B4689780F9D9DF879
:107E700040600329074649D193F90910481E092893
:107E800042D8DFE800F005A10E1B0E2126262F3870
:107E90004F4808F08BFA6FF00900BDEC048BBDE889
:107EA000F88F1178092900F08F8001F0FD03012B74
:107EB00000F08A80474808F079FAECE71B7D002B38
:107EC00000F082804448E4E71B7D002B7CD04348CF
:107ED000DFE71178092977D001F0FD03012B73D07A
:107EE0003F48E8E7117809296ED001F0FD03012B26
:107EF0006AD03C48DFE71178092965D001F0FD031D
:107F0000012B61D03848D6E73848D4E7052901D19C
:107F10000020C2E795F85840002CF9D11378D2F828
:107F20000480092B1FD0B0F872A0314A5445EFD21B
:107F30004FEA840B58F8049B66B1796F104651F8EC
:107F4000241008F033FA484608F01AFA294808F0D5
:107F50002DFA274A796F51F80B30AB60C5F80C90B9
:107F600001340835E2E7D2ED047A92ED039ADFF8A6
:107F700080B0DFF88090F8EEE78AB7F87230A3425D
:107F8000C6D918F9043008EE103AB8EEC88A4FEA9C
:107F9000840A38EE688A28EE098A66B17B6F5846F3
:107FA00053F8241008F002FA18EE100A08F0E8F965
:107FB000484608F0FBF97B6F53F80A30AB6085ED5B
:107FC000038A01340835D8E76FF0140065E700BF75
:107FD000194907005E49070093490700C449070093
:107FE000F6490700284A07005C4A0700904A070044
:107FF000C34A0700F3BF07002DE9F043064685B0EA
:108000000F46154698460024306990F85430A34234
:1080100013D9826D02EB4412D2E9029C117E53699E
:10802000127985F85820CDE90015CDE902C822461D
:108030003946C84740B90134E6E708F099F9831C8E
:1080400014BF00206FF0010005B0BDE8F083000010
:108050002DE9F04F2A49DFF8A8A0DFF8B8B087B0C3
:1080600005460BF0BAF90024A04627462646A1464D
:10807000244B0C2101FB043103A80BF0CFF951462E
:1080800003A80BF05FFAD0B109F1010903A801348C
:108090000BF058F9142CEBD1B8F1060F26DD1A4974
:1080A00028460BF0C5F9CDF800803B4632464946DC
:1080B000164808F07BF9284607B0BDE8F08F59460E
:1080C00003A80BF03FFA08B10136DFE7104903A817
:1080D0000BF038FA08B10137D8E70B4903A80BF0C9
:1080E00031FA0028D2D008F10108CFE7062F01DDD0
:1080F0000749D5E7062ECCBF06490149D0E700BFA6
:1081000094C90700706D0020EEB907008947070089
:1081100083870700C3500700036913B504463BB1CA
:10812000019383680BB947F069FFC36801A99847B9
:10813000002323612046FFF79EFA204602B010BDBF
:108140002DE9F0414FF0000805461746C0E90088C8
:10815000C0E90288C0F810800C4651B101F11F0639
:108160007609B600304608F01BF9C5E90008064458
:108170002E61002C2346B8BF04F11F036242286819
:1081800002F01F0204F01F044FEA631358BF544269
:1081900000EB8303002CBCBF2034043BC5E9023450
:1081A00028B12A693978121A494249F07FFD2846D8
:1081B000BDE8F0812DE9F0414368012B86B004460B
:1081C00042D0816801293FD0594300238DF8033004
:1081D0000DF103026B4601A84D1EFFF7B1FF01220E
:1081E0001646D4F800C00CEB82031F681346A16842
:1081F000B3FBF1F001FB1033616801FB03030CEBEF
:1082000083010198D1F800800F604FEA531E03F0FC
:108210001F0106FA01F750F82E109A4241EA0701B1
:1082200040F82E104746E2D1590903F01F0250F8DA
:10823000211006FA02F20A420DD0AB4203F101020C
:108240000BD308B108F0B0F8D4E90132C4E9012336
:1082500006B0BDE8F0811A46C3E71346E4E788425A
:1082600038B504460D4605D0FFF714FA29462046D6
:10827000FFF70AFA204638BD30B5D0E90232116A5C
:1082800005688B4289B01AD02A69B2FBF1F25343D8
:1082900003620C4B07930C4B029300230393019052
:1082A00001AB00F1100593E8070004AC84E8070077
:1082B00021462846FFF7D3FF2046FFF7EBF9284673
:1082C00009B030BDC04607005586020038B50D46DE
:1082D0000446FFF7DFF92A6812B9E260204638BD8C
:1082E000044BE360234643F8042B002262605A608B
:1082F000F4E700BFCC46070010B50446006808B19B
:1083000041F012FD204610BD38B50468054634B171
:108310002046FEF792FF1021204641F003FD28463B
:1083200038BD002238B50B680A6005680360044652
:1083300035B12846FEF781FF1021284641F0F2FCB6
:10834000204638BD2DE9F04F9DB004460E910292B3
:108350000793002800F0388100216022029849F03C
:10836000A5FC236993F83C2093F85430D318DD0022
:108370002846049341F0BEFC2A460021064612908E
:1083800049F094FC049B9D1CAD00284641F0B2FCD2
:1083900004230360049B436000F1080383460393B6
:1083A00005440022AB4202D043F8042BFAE707F061
:1083B000E1FFCDE91001039B059300250695236994
:1083C00093F83C20AA4240F2AE806A0117461A6C2C
:1083D000DDF81490D319D2590D92D3E901A2099274
:1083E000DA6808921A690A9210205A69DB690C92BD
:1083F0000B9341F06BFC5246002301210F90FFF7D5
:108400004EF90F9B0598139313A9FFF78AFF13A842
:10841000FFF77AFF059AD9F8003046F83530043274
:10842000331D05920D9A43F83520069B534406935D
:10843000236906999A6991424FEA850816D96E48D0
:1084400007F0B4FF6FF00405039B002B00F0B5802C
:10845000DBF8040003EB80042646039BB34200F0E4
:108460009E80043E3046FFF74FFFF6E70E9A1392C8
:108470000A9A14920C9A13A8CDE9152300231A9393
:10848000FFF7FAFE0B9B8146002B36D05B4B1B7827
:108490004BB95B495B4807F089FF5B4807F086FFF3
:1084A000564A01231370D4F808A05AF8083043B98B
:1084B00061680A6C896B3A44D369D06898474AF876
:1084C0000800A36853F8080040B3029A03680192B9
:1084D0002269926B0092D3F8048056F83520089BED
:1084E0004946C04788B10146484807F05FFF6FF032
:1084F000040517A8FFF7CEF8A6E72369089A9B6B37
:1085000056F83510099FB847ECE707F031FF831C98
:1085100007D017A8FFF7BEF8013550E76FF00A053E
:10852000E7E70546E5E707F025FF109BC01A119B1A
:1085300061EB0301029B4FF47A72C3E9100100233F
:1085400048F064FA029B5863079B0146002B41D018
:108550002F48304DDFF8C48007F028FF4FF00009A6
:10856000049B994533D056F83930ABB14FF0000A2F
:1085700056F839309A6852450BD91B6803EB8A03C9
:108580000AF1010A186807F0FBFE284607F00EFF03
:10859000EEE7404607F00AFF09F10109E0E7A4EB26
:1085A0000B00083880086FF0030303FB0040083815
:1085B00041680231890041F0B9FB12A8FFF79CFE27
:1085C00028461DB0BDE8F08F6FF01505F8E712489A
:1085D00007F0ECFE079B029A31462046FFF70CFDA0
:1085E000054600287FF430AF079A02992046FFF72E
:1085F00027FA054628E700BF684F0700256C0020D2
:10860000914F0700964F07009B4F0700055007004A
:108610002A500700E8CC07003E500700F3BF0700D0
:1086200013460A4601460148FFF78CBE306D002014
:1086300010B5C4682CB94FF4FD720449044840F0E9
:108640004DFD2468A446BDE810406047044E070075
:108650007E4E07002DE9F04705469846D0E90230E6
:10866000066AB1FBF3F106FB01F4B2FBF3F24FF043
:10867000000906FB0246A64219D908EB890A002721
:10868000AA68BA4209EB07030CD96B682868D95D60
:10869000012253462144FFF7CBFF0AF1040A38B9FF
:1086A0000137EDE7EA68126A99461444E3E70020CF
:1086B000BDE8F0872DE9F84FD0E90079A9EB070470
:1086C000A41014BF23460123E418064688469346A7
:1086D000A1EB070515D2B4F1804F12D2A4B1A000CE
:1086E00007F05EFE82460AEB0503DBF800201A6005
:1086F00052463B46984509D053F8041B42F8041BE8
:10870000F8E76FF04044EAE7A246ECE725F00305FE
:108710000435554443462A46994504D053F8041B72
:1087200042F8041BF8E7A9EB0808454417B138469E
:1087300007F03AFE0AEB8404C6E900A5B460BDE880
:10874000F88F00002DE9F04F2DED028B97B00C460D
:10875000597C0291997C0691D97C0191197D0391F4
:10876000597D93F810A00491997D059115460299C1
:108770009A68D3ED038AD3F818B0BAF1000F804697
:1087800014BF1346002301B11344069901B11344E9
:10879000019901B11344039901B11344049901B142
:1087A0001344059901B11344BBF1000F00D01344E9
:1087B000D5E901014143994240F09A812169B1FB19
:1087C000F2F100230AA8FEF76AFF0A9B002B00F0D3
:1087D0008D81226900212046FFF72AFFF7EE007AFB
:1087E000F4EE678AF1EE10FA13D0B0EE680A0AA828
:1087F000FEF73EFE044660B10146B64807F0D6FDDE
:108800000AA8FEF71AFD204617B0BDEC028BBDE8A2
:10881000F08F0AA8FFF7CEFC0026DFEDAF8A3446C2
:108820000B9BB34240F25A810C9A0A9B06FB02F161
:1088300003EB81030EA80121FEF731FFBAF1000F0F
:1088400002D1BBF1000F1DD009AB129300238DF8AC
:1088500054300123CDE913330F9B012B03D112A90F
:108860000EA8FEF729FE129B93ED008ABAF1000FC5
:1088700005D02B6803EB840383ED008A013412A832
:10888000FEF7DBFC029BCBB109AB129300238DF802
:1088900054300123CDE913330F9B012B03D112A9CF
:1088A0000EA8FEF723FE129B1A682B68671C03EBC9
:1088B000840412A82260FEF7C0FC3C46069BCBB1A4
:1088C00009AB129300238DF854300123CDE9133303
:1088D0000F9B012B03D112A90EA8FEF722FE129BBB
:1088E0001A682B68671C03EB840412A82260FEF749
:1088F000A4FC3C46019BB3B108AB12930123CDE924
:1089000013330F9B0027012B8DF8547000F09780D4
:10891000129B1A682B68671C03EB840412A8226060
:10892000FEF78BFC3C46039BB3B108AB12930123CB
:10893000CDE913330F9B0027012B8DF8547000F005
:108940009180129B1A682B68671C03EB840412A8A1
:108950002260FEF772FC3C46049BB3B109AB129354
:1089600000238DF8543012A901230EA8CDE913334A
:10897000FEF70CFF129B1A682B68671C03EB84043C
:1089800012A82260FEF759FC3C46059BB3B109AB27
:10899000129300238DF8543012A901230EA8CDE9BB
:1089A0001333FEF797FF129B1A682B68671C03EBC3
:1089B000840412A82260FEF740FC3C46BBF1000F85
:1089C00000F08280D8F80420D8F810908DED128A3B
:1089D0000C277743D019D259416859F826C0A1EB2A
:1089E000020EBCEBAE0F4FEA860361D38268914260
:1089F00058D0A1EC018A416059F803209FED367AE6
:108A0000013249F80320D8F81C108A4228BF0022FE
:108A100049F80320D8F80430DA19DB595268D21A21
:108A2000911007EE901A2968601C1A4401EB840427
:108A3000934242D0F3EC016A37EE267AF8E71099B8
:108A40000E9B01FB07F009AA03EB800007F06AFC0C
:108A5000129B099A03EB870301371A600F9BBB42F5
:108A6000EDD855E710990E9B01FB07F009AA03EB1F
:108A70008000FEF729FEDDED097AF5EEC07AF1EE11
:108A800010FA0CDB17EE900A48F002FB129B03EB86
:108A90008703013718600F9BBB42E3D851E718EEFC
:108AA000900AF3E712AA0793FFF704FE079BA3E7D8
:108AB00002EB8C0282ED008A9EE7F8EEE77AC7EEC1
:108AC000276AC4ED006A04460EA8FEF7B6FB01361D
:108AD000A6E600BFE24D070000000000D5E9013224
:108AE0005343AB6001236B60002489E6014C87E6A9
:108AF000014C88E616FCFFFF14FCFFFF13B50B4684
:108B00000446D0E900016A4682E8030093E80300C6
:108B100084E8030092E8030083E8030002B010BD7C
:108B200038B504460D460023836001462846FFF70A
:108B3000E5FFAB68A268AA60A360E268EB68EA6040
:108B40002046E36038BD00002DE9F04FCFB0DDE9ED
:108B500059471D46BB690592049306468A469DF80F
:108B60006CB107F007FC3D4B3E930DF1F8083C4B10
:108B70004193CDE906013B4B4093414609A8FFF7DD
:108B8000CFFF002340460D93FEF775FD2EABCDE9D8
:108B900000830EAA1EAB06A93846FEF7F5FB8146F8
:108BA000002843D196F8542096F83C3013440093A3
:108BB0002A46589B0EA95046FFF758F881460028D0
:108BC00034D1BB699B68DDE906599847002834D148
:108BD00007F0D0FB401B61EB0901C4E912014FF41F
:108BE0007A72002347F012FF0146A063BBF1000F29
:108BF00002D01D4807F0DAFB2EAB0093CDE9014B04
:108C000043461EAA39463046FFF72AF9054628B9D9
:108C100007F0AEFB023008BF6FF0010594F8583042
:108C200073B9049B0D48DB689847A94609A8FFF76C
:108C300073FA48464FB0BDE8F08F6FF00205EDE7DC
:108C400096F83C30059A13441EA85AF83310FFF7E3
:108C5000A9F881460028E4D0E8E700BFF9730200D4
:108C600003720200097202006C47070070B52D4DB7
:108C70002D4E6E6000242C73042007F091FB2B4ACC
:108C8000A8602B49046028462E6140F010FE6A223D
:108C900021462848284D294E06F0F8FF2849294842
:108CA00000F0A6FE214A2849264840F000FE4FF475
:108CB000806308222549264800F0C0FE1B4A25494A
:108CC000234840F0F4FD4FF48063122222492348E8
:108CD00000F0B4FE154A1F49204840F0E8FD4FF46B
:108CE000806312221E491F4800F0A8FE0F4A19494E
:108CF0001C4840F0DCFD11491B480AF06EFB0B4A92
:108D00001A49194840F0D3FD281931460C340AF0AD
:108D100064FBF02CF8D1054A15490020BDE87040ED
:108D200040F0C5BD306D0020C84A0700006000203B
:108D30002D7A0200446D0020706D0020C74A0700A4
:108D4000D8460700286C002085990200FD460700E0
:108D5000606E00206173020022470700786E0020D9
:108D6000474707006C6E0020246D00204533030048
:108D70000173020030B50E4C0E4985B00546204601
:108D80000AF09EF9294601A800F0BAFC01A9204684
:108D90000AF0A6F901A80AF0D5FA00210D200AF080
:108DA0004DFD01210B200AF049FD05B030BD00BF8B
:108DB00020830020084807007FB50F4D0F49064665
:108DC00028460AF07DF90E4B0024314601A81C709C
:108DD00000F096FC01A928460AF082F901A80AF0E1
:108DE000B1FA01210D200AF029FD21460B200AF0DD
:108DF00025FD04B070BD00BF20830020944807000B
:108E0000246C002010B54FF41651394808F07EFD4F
:108E100001210E200AF0E2FC00210E200AF03EFDA6
:108E200001210D200AF09AFC01210B200AF096FC8A
:108E300000210B200AF002FD0D2001210AF0FEFCAA
:108E40002C4B1C68236820469B68984720B92A4908
:108E500027480AF04FF9FEE7236828499B6C204613
:108E6000984723682549DB6B2046984723682449A7
:108E7000DB6A204698472349214800F0D7FD224964
:108E80001F4800F0D3FD21491D4800F0CFFD2368A5
:108E90001B491B6D2046984723681D4AD3F888302C
:108EA00000212046984723681A4AD3F888300121C8
:108EB00020469847184A1548032100F0CBFB236849
:108EC00020465B6D9847154807F0D8F848B114491B
:108ED00007480AF00FF900210B20BDE810400AF006
:108EE000ADBC10490248BDE810400AF003B900BF0C
:108EF00020830020DC510700525007006750070014
:108F0000286C00206C6E0020786E0020606E0020BF
:108F1000758D0200B98D02001D730200446D0020A2
:108F2000725007007F50070070B5824B824C196861
:108F3000824D2DED048B0B689FED819A1B6FDFED49
:108F4000818ABAB00FA898470026284606F08AFF03
:108F500007EE900A67EE897A2846C4ED007A06F09B
:108F6000A0FF07EE900A67EE897A2846C4ED017AE1
:108F700006F0B6FF07EE900A67EE897A2846C4ED40
:108F8000027A06F0CCFF07EE900A9FED6F8A27EE7B
:108F9000A87A2846C7EE087A0636183444ED037AD4
:108FA00006F0DCFF07EE900A27EEA87A2846C7EE07
:108FB000087A44ED027A06F0F0FF07EE900A27EEF9
:108FC000A87AC820C7EE087A44ED017A0AF06CFB53
:108FD0003C2EBAD16022002122A848F067FE00246E
:108FE0005A4B079307A90AA8CDE90D46FFF76EF97A
:108FF000224622A90AA8FFF713FB48B10AA8FEF7E8
:1090000049FB0FA800F038FB3AB0BDEC048B70BDF3
:109010004F499FED508A01A80AF0DFF922AC0425E0
:10902000D4ED038AF4EEC88AF1EE10FA05DDA168EA
:1090300001A80AF0FDF9B0EE688A013D04F10804C8
:10904000EED1454901A80AF07DFA00285BD04349DA
:10905000434C01A80AF0ECF918EE100A47F036F973
:1090600002460B463F48019907F0A0F923685A1CB5
:1090700022603D4A0C2000FB032001A90AF0BFF941
:109080002368142B3BD100232360384C04A8FEF73F
:10909000DFFF214607A80AF0C1F9354907A80AF001
:1090A00022FA04A90AF013FA014620460AF0A7F9A9
:1090B00007A80AF047F904992E4807F077F92E48D7
:1090C000216807F073F90FA800F034FBA0B12B481A
:1090D00007F06CF9216807A80AF07FF907A928486A
:1090E00000F0BAFC07A80AF02DF9264B1B781BB13B
:1090F000174920460AF09CF904A80AF023F901A8B0
:109100000AF020F97AE7204901A80AF01BFA08B111
:109110001E499DE71E4901A80AF014FA08B11D492D
:1091200096E71D4901A80AF00DFA08B11B498FE71F
:109130001B498DE7DC510700346C0020446D002092
:10914000C3F51C4125064940000034435D7202000E
:10915000C74A070000000000E84E070094C9070056
:109160006C6D0020F64E0700706D0020246D00200D
:10917000174F0700194F0700374F07004F4F0700E1
:10918000786E0020246C0020ED4E0700C3500700CD
:10919000F24E070083870700FB500700EEB9070077
:1091A000FB560700704710B55C21044640F0BAFD3D
:1091B000204610BD0A4A02601F210022C0E9092191
:1091C000C0E90B228286C0E90E220264A0F8442086
:1091D00080F84620C0E91222C0E91522704700BF7E
:1091E0001C5107008B6A8362CB6AC3620B6B0363FB
:1091F00091F8343080F8343091F8353080F83530DB
:109200008B6B8363CB6BC3630B6C0364B1F844302B
:10921000A0F8443091F8463080F846308B6C836477
:10922000CB6CC364B1F85030A0F850304B6D43653F
:109230008B6D8365704708B5FFF7D4FF08BD70B527
:10924000054686B068460E4603F0AEFCEC6C6846F8
:10925000002CCCBF0234002403F0E5FC0230241AB9
:10926000A86A241808D4AC62AE64684603F0DBFC3C
:10927000E864012006B070BD0020FBE710B5036C68
:109280001BB190F8464084B90233941C1B1B846ABE
:109290001B1958BFC0E90F124FF000045BBF80F8E4
:1092A000464083622046012010BD0433EDE730B50F
:1092B000046C1CB190F846508DB902341D1D641B1E
:1092C000856A64195FBFC0E90F230123A0F8441029
:1092D00080F8463056BF84620020184630BD043402
:1092E000ECE730B5846D002CCCBF043400241D1D88
:1092F000641B856A64195DBFC0E91523A0F850108E
:109300008462002058BF012030BD70B50546806BD7
:109310000E4688B1047814B149F0DAFC841C30465A
:1093200049F0D6FC0230241AA86A24185DBFAC624A
:10933000AE630120002070BD0446F0E790F83530A0
:10934000826A002B0CBF6FF0020300239B185FBFE3
:109350008362012380F8353080F8341054BF1846FA
:109360000020704704307047406A704790F835001D
:10937000704738B50446406AC0F11F039342154652
:1093800008DB0430204448F069FC626A2A446262C7
:10939000012038BD0020FCE770B50446406A0E4647
:1093A0001D4611460233C0F11F029A420FDB2318FB
:1093B0006A1C1A71821C0630626220445E712A4661
:1093C00048F04CFC636A2B446362012070BD0020AE
:1093D000FCE770B586B00546684603F0E5FB6846D5
:1093E00003F021FC022804466846CCBF062602266C
:1093F00003F017FC2346024631462846FFF7CCFF10
:1094000006B070BD13460A46FF21FFF7C5BF30B551
:1094100089B0054610461C46ADF800101A460146B4
:109420000DF1020048F01AFCA31C6A46FF212846F1
:10943000FFF7B2FF09B030BD30B589B00546104620
:109440001C46ADF800101A4601460DF1020048F026
:1094500005FCA31C6A4616212846FFF79DFF09B0AC
:1094600030BD07B501238DF807100DF1070219462D
:10947000FFF792FF03B05DF804FB70B50546104698
:109480000E46144649F024FC22460346314628463F
:10949000BDE87040FFF780BF70B5054608460C4632
:1094A00049F016FC1D2807D9224628461D2308210D
:1094B000BDE87040FFF770BF224628460921BDE88D
:1094C0007040FFF7DABF38B5C16A00230546436232
:1094D00029B1026B1AB1BDE83840FFF74ABF95F8D1
:1094E00035307BB395F834102846FFF7BAFF0446B1
:1094F000A96C21B12846FFF76CFF0440E4B2E96B88
:1095000061B12B6C53B195F84620EAB10A46284662
:10951000B5F84410FFF77BFF0440E4B26A6D42B136
:10952000AB6D33B1B5F850102846FFF785FF044006
:10953000E4B2A96B21B12846FFF7AEFF0440E4B2C4
:10954000204638BD0124D3E71A462846FFF75AFFC4
:10955000E2E700000C4B10B504460360406838B1E8
:1095600000F0C4FA20B9606810B103685B689847DE
:10957000A06838B101F035F820B9A06810B10368CF
:109580005B689847204610BD2C51070010B5044673
:10959000FFF7E0FF20460C2140F0C4FB204610BD41
:1095A000064B10B5C0E9003100230446836011B1B9
:1095B000084600F096FA204610BD00BF2C51070067
:1095C000064B10B5036000230446C0E9013111B118
:1095D000084601F001F8204610BD00BF2C510700DD
:1095E0002DE9F3410446542098460E46174640F0B4
:1095F0006DFB9DF820300093054643463A463146C0
:1096000000F04EFB29462046FFF7CAFF204602B075
:10961000BDE8F0810346406808B100F077BA986869
:1096200008B101F003B870470346406808B100F084
:109630006FBA986808B100F0FBBF704703464068F6
:1096400008B100F0C7BA986808B101F047B8704790
:109650004068704770B5054640680C46164610B124
:10966000C9B200F0C4FAA86828B13246E1B2BDE838
:10967000704001F044B870BD70470000024B18689C
:1096800003681B69184700BFCC540700024B1868D9
:1096900003685B69184700BFCC54070010B4054B42
:1096A00001791B681A685469421D184623465DF803
:1096B000044B18472053070010B50B4B044618689D
:1096C00021790368621D9B6A98474FF6FF739842A1
:1096D000014606D0054B18680268BDE81040926A42
:1096E000104794F94B0010BD20530700CC540700DD
:1096F00010B54C21044640F015FB204610BD00007B
:1097000010B58AB04B7903938B790293CB7901938F
:109710000B7A009304464B7A8A7A054905A849F0EA
:109720004DFA05A9204609F058FE20460AB010BDA2
:109730003451070007B5002306226946053000931F
:10974000ADF8043048F07CFA003018BF012003B0B7
:109750005DF804FB08B502790B799A4208D106221C
:109760000531053048F06CFAB0FA80F0400908BDC8
:109770000020FCE710B50A4B0446186803681B6913
:109780009847236820461B6A984740B1054B2179CA
:1097900018680368621D5B6BBDE81040184710BD78
:1097A000CC5407002053070008B502790B799A4280
:1097B00008D106220531053048F042FA003018BFC2
:1097C000012008BD0120FCE7064A02607F2100223B
:1097D000C272027380F84B10C0F80520A0F809206F
:1097E000704700BF5C51070010B501710021C172C4
:1097F0000173064C04607F2180F84B101168C0F89B
:1098000005109288A0F8092010BD00BF5C51070028
:10981000F8B50F461249064609F0DFFD397B0024F2
:10982000A1421ADD3B19A21C5D7B9B7B083B012BEF
:1098300005F1FF350FD82946304609F0A2FD0F3457
:109840003C440027BD4208DD14F8011B304609F0F6
:1098500033FE0137F6E7AC18E2E73046F8BD00BF4B
:10986000C74A07002DE9F04F85B08846224901928A
:10987000834609F0B2FD0024A14698F80C30A342BB
:1098800035D908EB0403671CFFB25E7B08EB0703C6
:109890005B7B9A1E012A25D9063B012B24D8102573
:1098A00005FB05F30234009358FA84F44FF0000AE4
:1098B000731EEAB2534517DD019989450CD1114653
:1098C00004F10D000393029203F0B0F901465846EB
:1098D00009F0AEFDDDE90223009909F10109AA446E
:1098E0000C44E7E70225DBE73E44F4B2C5E75846FF
:1098F00005B0BDE8F08F00BFC74A070010B50022D1
:109900000446FFF7AFFF204610BD08B513460279A5
:109910008A4208D106221946053048F091F9B0FA7A
:1099200080F0400908BD0020FCE710B50446012086
:1099300000FA01F1E1722273194604F10D0048F0BA
:109940008DF99DF9083084F84B3010BD70B50D4687
:109950001146C27A42F010020446C272007B0D30FA
:109960002A4620441E4648F079F9237B84F84B6050
:109970001D44257370BDC37A13F0180F14BF012066
:10998000002070470C4B10B504460360406838B1A6
:1099900000F0ACF820B9606810B103685B689847C4
:1099A000A06838B100F01DFE20B9A06810B10368AE
:1099B0005B689847204610BD9051070010B50446DB
:1099C000FFF7E0FF20460C2140F0ACF9204610BD27
:1099D000064B10B5C0E9003100230446836011B185
:1099E000084600F07EF8204610BD00BF90510700E9
:1099F00070B5044630200E4640F068F93146054601
:109A000000F024FD29462046FFF7E2FF204670BD06
:109A10000346406808B100F05BB8986808B100F0F0
:109A2000D9BD0148704700BFC74A0700406808B168
:109A300000F04ABD704740687047000037B5002508
:109A400000950446FFF7CCFD024B2360204603B08F
:109A500030BD00BFA046070001220968FFF7EEBD38
:109A6000F8B50C460D49054609F0B7FC2046FFF74E
:109A7000DBFD06462046FFF7CDFD3146074628466A
:109A800009F07FFC0024B44205DA395D284609F06C
:109A900013FD0134F7E72846F8BD00BFC74A0700A9
:109AA00070470020704710B52021044640F03AF975
:109AB000204610BD10B5054B044640F8043B03F0AA
:109AC00073F80023E361204610BD00BFA0510700DA
:109AD000043003F0A4B8043003F0A3B8043003F05A
:109AE000A2B8C3690133C36118467047C369013B1B
:109AF000C3611846704742F60300704790F8200093
:109B0000704790F821007047406A7047806A70473C
:109B1000808D7047F8B51546426AAA42A8BF2A460A
:109B20000446828592B2806A0E4648F097F894F80F
:109B30002E300BB1636AA38594F8203098060DD5BA
:109B4000A28E91070AD51F4B218E186803685D6DA0
:109B50000131A38DA26A89B2A847F8BDDA0609D5FA
:109B6000A38EDB0706D5174B218E186803680131D9
:109B70001D6DEEE794F832300BB90120EDE7124B82
:109B80001868036821465B6A9847104B1C68236875
:109B900001461F6B32462B462046B847094B1868D2
:109BA00003681B6B98470028E7D1094B18680368C6
:109BB0009B6898470028E0D0236820465B6D984753
:109BC000DBE700BF205307006C540700DC5107009F
:109BD0002054070038B5054608460C4649F078F889
:109BE000214602462846BDE83840FFF793BF0329C7
:109BF0009CBF00EB81004264704701867047008E75
:109C00007047008E013080B27047806B7047836B65
:109C1000994208D2C36B0022914202D05B680132A4
:109C2000FAE71868704700207047000030B5114B04
:109C300003600B7903710B4601F1490453F8052FBA
:109C4000C0F805209B88A0F80930CB7AC3720B7B43
:109C5000037300F10D0201F10D0353F8045B42F8A8
:109C6000045BA342F9D11B88138091F94B3080F833
:109C70004B3030BD5C51070038B5044608200D4616
:109C800040F024F80023C0E9005363682BB96060FA
:109C90002368A0600133236038BDA3685860F7E7EC
:109CA00070B504461D461646FFF704FFB5F5007F64
:109CB000194B23602B46A8BF4FF400730021636249
:109CC0009DF810302684A18584F82E302163A1866A
:109CD000C4E90E112164102204F1440047F0E6FFAC
:109CE00016F0300F11D02C203FF0F0FF0B49064644
:109CF000022304F1340200F0D7F83046FFF7F1FEFA
:109D0000314604F13800FFF7B7FF284647F034FF2B
:109D1000A062204670BD00BFBC510700AC510700D7
:109D200070B50446406800252368AB4206D94668F2
:109D300008213FF0F7FF01353046F5E70023C4E97D
:109D40000033A36070BD0000154B70B5044603607E
:109D50000025A36B9D4212D2E36B0022954202D0F4
:109D60005B680132FAE71E683046FFF7BFFE20B994
:109D70001EB1336830465B6898470135E9E704F166
:109D800038052846FFF7CCFFA06A08B147F0FCFE73
:109D90002846FFF7C5FF2046FFF782FE204670BD2C
:109DA000BC51070010B50446FFF7CEFF20465421F2
:109DB0003FF0B8FF204610BDF0B5C56C97B0044623
:109DC00017461E467DB103A8FFF730FF21466846BF
:109DD000FFF7E6FB694603A8A8476846FFF7BAFB0A
:109DE00003A8FFF749FCA16A1C9A3944304647F0A2
:109DF00035FF17B0F0BD70B504460E46114601227E
:109E000080F8332096B01A46FFF784FE256D85B1A1
:109E1000314603A8FFF70AFF21466846FFF7C0FB5B
:109E2000694603A8A8476846FFF794FB03A8FFF715
:109E300023FC16B070BD30B5838E02F0030293424E
:109E400097B0044617D08286002A0CBF44224022D5
:109E5000024455687DB103A8FFF7E8FE2146684635
:109E6000FFF79EFB694603A8A8476846FFF772FB09
:109E700003A8FFF701FC17B030BD4FF42450704722
:109E800010B5034B03600446FFF70AFE204610BDE1
:109E9000D051070010B50446FFF7F2FF20462C21F1
:109EA0003FF040FF204610BD70B504461D461646E3
:109EB000FFF700FE064B2360B5F5007FA8BF4FF407
:109EC00000750023266265622385204670BD00BFB1
:109ED000D0510700406A7047006A7047018570479B
:109EE000064B1868036810B5DB689847044B186880
:109EF0000368BDE81040DB68184700BF6C540700DA
:109F0000CC540700024B186803681B69184700BF50
:109F1000CC540700024B186803685B69184700BF00
:109F2000CC54070010B5064B186803681B699847A6
:109F3000044B18680368BDE810401B6B184700BF4E
:109F4000CC5407002053070010B5064B186803686F
:109F50001B699847044B18680368BDE81040DB6B29
:109F6000184700BFCC54070020530700024B186865
:109F700003689B6C184700BF205307000C307047E4
:109F800068307047024B186803681B69184700BFA8
:109F90006C540700024B186803685B69184700BFE0
:109FA0006C540700024B186803689B69184700BF90
:109FB0006C540700024B186803681B69184700BF00
:109FC00020540700024B186803685B69184700BFFC
:109FD00020540700024B186803685B6A184700BFEB
:109FE0002054070010B5074B0446186803681B6926
:109FF0009847054B19680B682046DB6C984720464C
:10A0000010BD00BFCC5407002053070010B5074B0C
:10A010000446186803681B699847054B19680B6864
:10A0200020469B6A9847204610BD00BFCC540700CD
:10A0300020540700024B18680368DB6A184700BF0A
:10A0400020540700024B186803689B69184700BF3B
:10A0500030570700024B18680368DB69184700BFD8
:10A0600030570700024B186803681B6B184700BF86
:10A0700020540700024B18680368DB68184700BFCC
:10A0800020530700024B186803681B6A184700BF7B
:10A0900030570700024B186803685B6A184700BF17
:10A0A00030570700024B1B68C3F8F010704700BF21
:10A0B000CC540700024B1B68C3F8F810704700BF70
:10A0C000CC540700024B1B68C3F8F410704700BF64
:10A0D000CC540700024B1B68C3F8EC10704700BF5C
:10A0E000CC540700024B1B68C3F8FC10704700BF3C
:10A0F000CC540700024B1B68C3F80011704700BF27
:10A10000CC540700024B18680368D3F89C301847FA
:10A11000CC540700024B18680368D3F8A0301847E6
:10A12000CC540700F0B52A4B1D682B6887B0044655
:10A130009B6828469847064620B923682046DB6876
:10A1400098470DE0642009F0AFFA2B6828469B6918
:10A150009847064638B123682046DB6898470026B2
:10A16000304607B0F0BD05AA2B6801920DF112022E
:10A170000092DF6904AA0DF10E030DF10D012846CE
:10A18000B8470028D9D12B684FF0FF32D96A28464A
:10A190006FF0404388470028CFD12B6840F2FF3250
:10A1A000196B28460023884706460028D3D12B6820
:10A1B0000DF10F025B6B0DF1160128469847002840
:10A1C000BBD1044B186803689B6898470126C7E712
:10A1D000CC5407006C54070010B58CB000230593D5
:10A1E000ADF81830104B04461868036805A91B6ABF
:10A1F00098479DF8143003939DF8153002939DF80D
:10A20000163001939DF8173000939DF819209DF8A2
:10A210001830064907A848F0D1FC07A9204609F0E4
:10A22000DCF820460CB010BDCC54070034510700B8
:10A230000C30FFF704B870B50368044608469D6A01
:10A24000FFF7E6FB2B4601462046BDE87040184765
:10A250000C30FFF746B80C30FFF710B80C30FFF7A2
:10A2600026B86830FFF751B86830FEF7E4BF10B584
:10A2700000F10C042046FEF7DEFF2046FFF776F8DB
:10A2800028B920460621BDE81040FFF757B810BD99
:10A290002DE9F74300F10C05044668342846FFF722
:10A2A00012F92046FFF70FF90E4B1E683368284657
:10A2B000DF68FFF757F880462846FFF755F8054650
:10A2C0002046FFF74FF881462046FFF74DF8C0B211
:10A2D00000904B46EAB241463046B84703B0BDE86D
:10A2E000F08300BF205407007FB5094B1C6823682A
:10A2F000164601A89D6909F091F8324601A9204649
:10A30000A847044601A809F01DF8204604B070BD16
:10A31000205407007FB5094B1C682368164601A826
:10A32000DD6909F07BF8324601A92046A8470446BA
:10A3300001A809F007F8204604B070BD20540700BA
:10A340007FB5094B1C682368164601A81D6A09F0F1
:10A3500065F8324601A92046A847044601A808F03E
:10A36000F1FF204604B070BD2054070002290BBF46
:10A37000044B054B186818680BBF036803685B6BD8
:10A380009B6D1847205407002053070038B504463A
:10A39000084B44F80C3B05462046FEF70BFF05F141
:10A3A0006800FEF707FF06212046FEF7C7FF284694
:10A3B00038BD00BFE851070010B5054C2046FFF737
:10A3C000E5FF2046034A0449BDE810403FF06FBA5C
:10A3D000846E002000600020DDA3020010B5064B53
:10A3E000044640F8683BFEF7DDFE04F10C00FEF782
:10A3F000D9FE204610BD00BFE851070010B5044645
:10A40000FFF7ECFF2046C4213FF08CFC204610BD36
:10A4100010B50B4B19680B6894B001A8DB6C98471A
:10A4200001A8FFF787F948B101A8FFF745F90446ED
:10A4300001A8FFF721F9204614B010BD7F24F7E7EB
:10A44000205307004FF420507047000010B5044619
:10A45000FFF730FB044B23600023C4E90833C4E951
:10A460000A33204610BD00BFB45207000184428465
:10A470007047008C7047408C7047406A7047436A51
:10A48000994208D2836A0022914202D05B6801326D
:10A49000FAE7186870470020704738B50446084648
:10A4A0000D46FFF71EFB08203FF010FC0023C0E91B
:10A4B0000053A36A2BB9A062636AE062013363624E
:10A4C00038BDE36A5860F7E710B504460846FFF761
:10A4D000BFF8014620B12046BDE81040FFF7DDBFC0
:10A4E00010BD70B50446406800252368AB4206D90C
:10A4F000466808213FF016FC01353046F5E7002399
:10A50000C4E90033A36070BD10B504462430FFF7E2
:10A51000E8FF0023236210BD134B70B504460360AF
:10A520000025636A9D4212D2A36A0022954202D09E
:10A530005B680132FAE71E683046FFF7D7FA20B9A8
:10A540001EB1336830465B6898470135E9E720461D
:10A55000FFF7DAFF04F12400FFF7C3FF2046FFF7FF
:10A560009FFA204670BD00BFB452070010B50446E4
:10A57000FFF7D2FF204630213FF0D4FB204610BD2C
:10A5800010B5044B044640F8043B08F0DBFE2046BF
:10A5900010BD00BFC852070010B50446FFF7F0FF1A
:10A5A000204614213FF0BEFB204610BD38B50446BE
:10A5B0002546074B45F8043B0846114602F036FB9A
:10A5C0000146284608F009FF00232361204638BDD4
:10A5D000C852070040687047036901330361184699
:10A5E00070470369013B03611846704738B504465C
:10A5F0001D46FFF7DBFF0C4B2360BDF81030E382F4
:10A60000BDF814302383BDF8183063834FF4807293
:10A610000023A582C4E90733A284C4E90A33C4E94C
:10A620000C33204638BD00BFD8520700C0697047C0
:10A63000006A70472DE9F0439846274B1E6833683F
:10A6400085B004460F469B6B818A304691469847F9
:10A6500018B9002005B0BDE8F0833368A18A5B6CAF
:10A6600030469847033885B24D45A8BF4D46294628
:10A67000E06948F07DF9E0610028EAD0237E1A07FE
:10A680001CD5B8F1000F19D003AA33680192EAB2C1
:10A690000092D3F86080628BA18A3B463046C04767
:10A6A0000028D7D09DF80C30012BD2D02A4639464D
:10A6B000E06947F0D3FA25620120CBE75B07C8D5F4
:10A6C0003368A18AEAB20092D3F86480628B3B4679
:10A6D0003046C047EAE700BF2053070070B5054683
:10A6E000084616460C4648F0F3FA33460246214621
:10A6F0002846BDE87040FFF79DBF408B7047032997
:10A7000008BF4263704738B5044608460D46FFF758
:10A7100063FF08203FF0DAFA0023C0E90053E36A40
:10A720002BB9E062A36A20630133A36238BD236BB7
:10A730005860F7E770B50446406800252368AB42CF
:10A7400006D9466808213FF0EDFA01353046F5E7B5
:10A750000023C4E90033A36070BD03688B4208D9AD
:10A76000436800228A4202D05B680132FAE7186827
:10A770007047002070470000F8B50546134B45F8B8
:10A78000283B04460026A36A9E420ED23146284644
:10A79000FFF7E3FF0746FFF724FF20B91FB13B682F
:10A7A00038465B6898470136EDE72846FFF7C2FF59
:10A7B000E06918B147F0E8F90023E3612846FFF7A4
:10A7C000B9FF2046FFF7DCFE2046F8BDD85207004F
:10A7D00010B50446FFF7D0FF204638213FF0A2FA1B
:10A7E000204610BD70B50446036296B00D46C069A0
:10A7F0001946164648F0BCF8E06110B9206216B060
:10A8000070BD01233146A384226A47F027FA666BA4
:10A81000002EF4D0194B03932B798DF810302B4672
:10A8200005F1490153F8052FCDF811209B88ADF8AB
:10A830001530EB7A8DF817302B7B8DF818300DF131
:10A84000190205F10D0353F8040B42F8040B8B4277
:10A85000F9D11B88138095F84B308DF8573021467D
:10A860006846FEF7ADFE694603A8B0476846FEF7A6
:10A8700071FE03A8FEF700FFC1E700BF5C510700AF
:10A88000074B10B504460360806918B147F07CF9A6
:10A890000023A3612046FFF773FE204610BD00BFD2
:10A8A000E852070010B50446FFF7EAFF20462021D2
:10A8B0003FF038FA204610BD38B504461D46FFF774
:10A8C00075FE054B2360BDF81030E3820023A5829E
:10A8D000C4E90633204638BDE8520700034A026047
:10A8E0000022C0E90122C260704700BFF852070091
:10A8F00038B5044608460D46FFF76EFE08203FF0C7
:10A90000E5F90023C0E90053A3682BB9A060636890
:10A91000E0600133636038BDE3685860F7E7406882
:10A9200070474368994208D283680022914202D05E
:10A930005B680132FAE7186870470020704770B50D
:10A940000446406800252368AB4206D946680821C2
:10A950003FF0E8F901353046F5E70023C4E900335C
:10A96000A36070BD70B50646002473689C4212D285
:10A97000B3680022944202D05B680132FAE71D6896
:10A980002846FFF72EFE20B91DB12B6828465B68CC
:10A9900098470134E9E7301DFFF7D1FF70BD000093
:10A9A00038B50446054B44F8043B0546FFF7DAFF8B
:10A9B0002046FFF7C4FF284638BD00BFF852070005
:10A9C00010B50446FFF7ECFF204610213FF0AAF92E
:10A9D000204610BD38B504461D46FFF7E7FD084B7D
:10A9E0002360BDF81030E382A582064904F1180007
:10A9F00008F0F3FC0023C4E90933E362204638BDC4
:10AA000008530700C74A0700808A7047C08A70470A
:10AA1000406A7047436A994208D2836A0022914291
:10AA200002D05B680132FAE718687047002070476F
:10AA300038B5044608460D46FFF7CEFD08203FF026
:10AA400045F90023C0E90053A36A2BB9A062636AE9
:10AA5000E0620133636238BDE36A5860F7E770B5BE
:10AA60000446406800252368AB4206D946680821A1
:10AA70003FF058F901353046F5E70023C4E90033CB
:10AA8000A36070BD154B70B5044603600025636A72
:10AA90009D4212D2A36A0022954202D05B68013225
:10AAA000FAE71E683046FFF79CFD20B91EB13368F7
:10AAB00030465B6898470135E9E704F124052846EC
:10AAC000FFF7CDFF2846FFF7CAFF04F1180008F092
:10AAD00039FC2046FFF754FD204670BD085307009F
:10AAE00010B50446FFF7CEFF204630213FF01AF99B
:10AAF000204610BDA0F8A8107047C0F8AC107047F1
:10AB00002DE9FF41013A13F8014BD6B20268CDE9B5
:10AB10000233526C05460F4690470C2C02462968BA
:10AB2000029B79D02FD8052C69D01AD8022C60D07E
:10AB30000BD8012C53D006230093D1F8DC600023FE
:10AB4000224639462846B0476EE0032C54D0042CE8
:10AB5000F1D10093D1F89440334639462846A047B6
:10AB600062E0092C52D007D8062C4BD0082CE2D139
:10AB70000093D1F8A440EFE70A2C4DD00B2CDAD18A
:10AB8000D1F8B4402DE0162C51D00FD8112C40D064
:10AB900005D8102CCFD10093D1F8B840DCE7122CA7
:10ABA00018D0132CC7D1D1F8C8401AE01D2C04D0FE
:10ABB0000CD8182C3FD01B2CBDD10093D1F8D480D9
:10ABC0003346224639462846C0472DE01E2C36D053
:10ABD000522CB0D1CDE90063D1F8C46020E0D1F8A7
:10ABE0008440324639462846A44604B0BDE8F041C8
:10ABF0006047D1F88840F4E7D1F89040F1E7D1F808
:10AC00009C40EEE70093D1F8A040A5E7D1F8AC4016
:10AC1000E7E7D1F8C040E4E7CDE90063D1F8B060E0
:10AC2000234639462846B04704B0BDE8F08100937A
:10AC3000D1F8CC4090E70093D1F8D0408CE7D1F820
:10AC4000D840CEE700F18C034FF6FF72B0F8B01099
:10AC5000914204D11C309842F8D100207047012065
:10AC6000704708B503689B6A98474FF6FF73C01A90
:10AC700018BF012008BD000038B50A4B044618680B
:10AC800003681B690D469847204604F18C03B0F811
:10AC9000B020AA4204D01C309842F8D1002038BD20
:10ACA0000120FCE7CC54070000F18C0390F9C82088
:10ACB000002A04DB1C309842F8D1002070470120A4
:10ACC000704770B5002300F1B0041C2505FB03F2AA
:10ACD000A65A8E4203D11044B0F8C00070BD0133B3
:10ACE000052BF3D11720F9E71FB5ADF80D20026849
:10ACF000009302248DF80C400323D2F8F04003AAFD
:10AD0000A04704B010BD1FB5ADF80920ADF80B3059
:10AD1000069A0368009204248DF8084002AAD3F82A
:10AD2000F0400523A04704B010BD1FB5ADF80B30AF
:10AD3000BDF81830ADF80920ADF80D30079A03685A
:10AD4000009210248DF8084002AAD3F8F04007239F
:10AD5000A04704B010BD1FB5ADF80B30BDF81830DA
:10AD6000ADF80920ADF80D30079A03680092082469
:10AD70008DF8084002AAD3F8F0400723A04704B09A
:10AD800010BD012380F83C31704700001FB5ADF8BD
:10AD90000A309DF818308DF80C30084B8DF80920DA
:10ADA00001208DF80800186802AA03680092D3F801
:10ADB000944004220523A04704B010BDCC540700E2
:10ADC00001299CBF00EB8100C0F8542170471FB5DA
:10ADD000ADF80D20026800930A248DF80C4003237F
:10ADE000D2F8F04003AAA04704B010BDF0B500238C
:10ADF0001C2500F1B00605FB03F4375B8F4204D03D
:10AE00000133052BF7D100200FE0B4340444911D29
:10AE100014F8015B01F801599142F9D11C2202FB9F
:10AE20000303012093F8B3300B70F0BD2DE9F84314
:10AE3000DFF8648000F1B40400F5A07500264FF639
:10AE4000FF774FF0170934F8041CB9421BD0D8F82B
:10AE500000000368D3F898309847A0B904F8020CB2
:10AE600004F8010C2060A080C4F80600608120690D
:10AE700024F8047C0136A4F80C9010B103685B68D8
:10AE80009847002323611C34AC42DCD1002ED4BF90
:10AE900000200120BDE8F883CC54070010B5054B15
:10AEA00003600446D0F8400108B146F06DFE20462C
:10AEB00010BD00BF2C53070010B50446FFF7EEFF8E
:10AEC00020464FF4AE713EF02DFF204610BD00002D
:10AED0002DE9F0431D4B1D688BB006230F4604215E
:10AEE000002490462A680097CDE90713C821CDE9D0
:10AEF00005410C21CDE90331CDE901840646D2F8A4
:10AF000054902346302260212846C847D8B908F01B
:10AF1000ADFB044608F0AAFBD6F8AC30001B984203
:10AF20002B680DD21B6928469847336842465B6BF5
:10AF30003946304698470028ECD00BB0BDE8F08386
:10AF4000DB6D284698470020F7E700BFCC54070088
:10AF5000F8B503689B6A044698474FF6FF7398421A
:10AF600006461ED0104B1D682B680146D3F898305A
:10AF70002846984708F07AFB074608F077FBD4F894
:10AF8000AC30C01B98420CD22B6828461B699847EE
:10AF9000236831469B6B204698470028EDD101205D
:10AFA000F8BD0020FCE700BFCC5407002DE9F341B9
:10AFB0000546089CA5F848111078C5F84C410130A9
:10AFC00085F84A01002085F8500119480668306864
:10AFD0000092D0F89480DBB2042230460F46C0477E
:10AFE00024B308F043FB044608F040FBD5F8AC302E
:10AFF000001B984214D2336830461B6998472B686F
:10B0000039469B6B2846984750B195F85001002867
:10B01000EAD04FF6FF73A5F8483102B0BDE8F081E1
:10B020004FF6FF73A5F848310020F6E72046F4E715
:10B03000CC5407002DE9F047994603689B6A044603
:10B0400098474FF6FF739842064604D14FF0000828
:10B050004046BDE8F08723680146D3F8E03020463B
:10B06000984780460028F1D0002504F1B0031C2247
:10B0700002FB05F7D95BB14234D12744D7F8C4307D
:10B080003BB910203EF022FE8246FFF727FCC7F8AE
:10B09000C4A01C2303FB0545D5F8C450002DD5D012
:10B0A0002846B9F1000F21D1FFF75CFC23682A463E
:10B0B000D3F8E47031464B462046B8470028C5D047
:10B0C00023682A46D3F8E8303146204698470028BE
:10B0D000BCD023682A4631462046D3F8EC30BDE880
:10B0E000F04718470135052DC2D1AFE7FFF717FC30
:10B0F000002782465745D9DA39462846FFF711FC22
:10B10000FFF768FA494647F0BDFD0028A0D0013797
:10B11000F0E7F0B5C5B004469DF82851ADF80D2014
:10B120000F4612218DF80C102A4619460DF10F001A
:10B1300046F094FD23684B9A0092D3F8F06003AA7E
:10B14000EB1C39462046B04745B0F0BDF0B5C5B060
:10B1500004469DF82851ADF80D200F4652218DF878
:10B160000C102A4619460DF10F0046F077FD2368B2
:10B1700000220092D3F8F06003AAEB1C3946204667
:10B18000B04745B0F0BD10B500F1C90300F255104D
:10B1900033F8194C8C4201BF1C8814809C78947041
:10B1A0001C338342F4D1002010BD00002DE9F04192
:10B1B00096B004461C9E1F4600201C2304F1B00CD0
:10B1C0004FF6FF7E03FB00F53CF80580F04505D007
:10B1D00001300528F6D116B0BDE8F08160191723BB
:10B1E00080F8B220A0F8C030A0F8B01080F8B3709A
:10B1F00005F1B4033168E150E218B38893800DF192
:10B200000901721E731D12F8010F01F801099A421B
:10B21000F9D10F4B1868BA35036804EB0508D3F869
:10B220009030424601A9984710B96051A8F804002F
:10B23000D4F85441002CCED03246394603A8FEF74C
:10B24000D3FA03A8A04703A8FEF716FAC3E700BF86
:10B25000CC5407002DE9F04106460F46904600F118
:10B26000B405002415F8013CBB420CD1062241462E
:10B27000284646F0E5FC30B91C2303FB0464B4F80F
:10B28000B000BDE8F0810134052C05F11C05E9D1C1
:10B290004FF6FF70F5E72DE9F04106460F46904660
:10B2A00000F1B405002415F8013CBB420CD1062284
:10B2B0004146284646F0C4FC30B91C2303FB046415
:10B2C000D4F8C400BDE8F0810134052C05F11C055B
:10B2D000E9D10020F6E738B54FF6FF7204460B4679
:10B2E0000020B3F8B050954203D093F8B250012D2E
:10B2F00008D00130052803F11C03F2D12046FEF7E7
:10B3000063FA0AE01C23434303F1B4020B440A44EA
:10B31000204693F8B310FEF767FA204638BD98B57B
:10B32000B0F8A820D31DEC46DB08ACEBC30300AF9C
:10B330009D460368D3F88C406B46A047003018BF89
:10B340000120BD4698BD00002DE9F04F87B002AF47
:10B350001D46DFF890A0B96000F18C0391460446C9
:10B36000FB600026B4F8B080C7F804D04FF6FF7336
:10B3700098452BD0B4F8C030DA1D6946D208A1EB4D
:10B38000C202033B95469BB2ADB29D424FF01B02F9
:10B3900028BF1D468DF80820BA68ADF80920494637
:10B3A0002A460DF10B0046F059FCDAF800000DF1C9
:10B3B000080B0268CDF800B0EB1CD2F894B0DBB2F9
:10B3C00004224146D847D7F804D00136FB681C3424
:10B3D0009C42C7D1002ED4BF002001201437BD46A7
:10B3E000BDE8F08FCC5407002DE9F04F87B002AFD5
:10B3F000C7E900211E4600F5A073054600F1B4041C
:10B40000BB604FF0000934F804ACC7F80CD04FF61D
:10B41000FF739A4542D0A389DA1D6946D208A1EB91
:10B42000C202033B95469BB2B6B29E424FF01D024C
:10B4300028BF1E468DF808207A68ADF809203968C3
:10B4400032460DF10B0046F009FC002385F83C3133
:10B45000194BD3F800800DF1080BD8F80020CDF877
:10B4600000B0F31CD2F894B0DBB20422514640463F
:10B47000D84795F83C316BB9D8F8003040461B6985
:10B4800098472B6814F8011C5B6B224628469847A6
:10B490000028EED1D7F80CD009F10109BB681C34A3
:10B4A000A342B0D1B9F1000FD4BF0020012014375E
:10B4B000BD46BDE8F08F00BFCC5407002DE9F04F2A
:10B4C00089B002AF042BFA603A6CC7F808D0C7E91C
:10B4D000041014880AD0036804220092D3F8DC50C8
:10B4E0002346A8471C37BD46BDE8F08FFB680733ED
:10B4F0006A46DB08A2EBC3039D460DF1080805234D
:10B500008DF80830002388F80130484B013CD3F80F
:10B5100000A0A4B20225DAF800305046DB69984753
:10B52000844258D23B6C5B88A34254D9DAF800308D
:10B5300021461B6A5046984703689B688346984794
:10B5400042F6030301349842A4B255D15846FEF79F
:10B5500058FB231A59425941DBF8003079609B6847
:10B56000584698477968024611B9B0F5245F45D12D
:10B570005846C7E90012FEF7B1FAD7E900120228CF
:10B5800006460CBF0123022398F8010008B988F889
:10B59000013098F8010098421DD105F102091FFA07
:10B5A00089F928F8054008EB090311B9B2F5245FC1
:10B5B00027D158467B60FEF78EFA7B6801463246FB
:10B5C000184646F04BFB09EB0605ADB20236FB68A8
:10B5D0002E44B3429FDA022D1CD17A693B6C12686B
:10B5E0001B880A210091D2F8DC40D7E9041004221C
:10B5F000A047D7F808D075E70021ADE70226012360
:10B60000C2E7DBF8003058469B689847043528F8B5
:10B610000900DAE7064B18680368CDF80080D3F814
:10B6200094403969EBB20422A047E2E76C5407006A
:10B63000CC5407002DE9F04F89B002AF052B3E6CCA
:10B64000C7F808D08346C7E9032134880BD80368BC
:10B6500004220092D3F8DC5006222346A8471C3768
:10B66000BD46BDE8F08FFA6807326946D208A1EB03
:10B67000C202954607228DF80820B288B2F5205FF5
:10B680000DF1080A0DD0DBF8002033880A21009163
:10B69000D2F8DC40396906225846A047D7F808D0CE
:10B6A000DDE7063B9BB27B61274B013CD3F8009062
:10B6B000B31DA4B201257B60D9F800304846DB6990
:10B6C0009847844232D27388A3422FD9D9F80030E8
:10B6D00021461B6A4846984703689B6880469847FE
:10B6E000B38883421BD14046FEF7F8F97B69984244
:10B6F00015D14046FEF7EFF97A69796846F0A0FA6D
:10B7000068B94046FEF7B5FE2AF805004046FEF748
:10B71000B2FEAB1C9BB204352AF80300ADB2FA6846
:10B72000EB1C9A4202DD0134A4B2C5E7012DAAD078
:10B73000064B18680368CDF800A0D3F89440396927
:10B74000EBB20422A047A9E76C540700CC540700D1
:10B750002DE9F04F89B002AF062BBA603A6CC7F8FA
:10B760000CD081468B46158804D19388A3F52053CD
:10B77000012B0FD9D9F8003010220092D3F8DC4009
:10B780002B4659464846A047D7F80CD01C37BD4633
:10B79000BDE8F08FBB6807336A46DB08A2EBC30342
:10B7A0009D4602AE11238DF8083000237370364B8E
:10B7B000013DD3F800A0ADB20224DAF800305046C3
:10B7C000DB699847854247D23B6C5B88AB4243D9E3
:10B7D000DAF8003029461B6A504698473B6C0268ED
:10B7E0009B887B619268804690477B69834230D119
:10B7F0004046FEF773F9022803460CBF06231423C4
:10B800003B61737878610BB93B69737073783A69FF
:10B81000934221D14046FEF72CFE30534046FEF7BE
:10B820002AFEA31C9BB20434A4B2F0523319404642
:10B830007B60FEF750F97B687A690146184646F04E
:10B840000DFA7B69BA681C443B69A4B223449A424E
:10B8500002DB0135ADB2B0E7022C09D13B6CD9F85F
:10B8600000201B880A210091D2F8DC40102288E7D2
:10B87000064B186803680096D3F894500422E3B28C
:10B880005946A84780E700BF6C540700CC54070016
:10B890002DE9F04F89B002AF91463A6CC7F808D055
:10B8A000062BC7E9031015880BD003680422009209
:10B8B000D3F8DC4008222B46A0471C37BD46BDE824
:10B8C000F08F09F107036A46DB08A2EBC3039D462C
:10B8D0000DF1080809238DF80830002388F801309D
:10B8E0006D4B1B687B613B6C013D0433ADB20224A0
:10B8F0007B607B6978691B68DB699847854280F0CB
:10B9000083803B6C5B88AB427ED97B6978691B681E
:10B9100029461B6A984703689B68064698473B6C14
:10B920009B888342336805F1010A1FFA8AFA9B68F3
:10B9300030467AD1984742F6030398423DD13046CB
:10B94000FEF75FF9824535D03046FEF7C7F898F824
:10B950000120022803460CBF4FF0070B4FF0150BD8
:10B960000AB988F801B098F801203B605A454BD1DC
:10B9700028F804A03046FEF7C1F8A21C92B20235A6
:10B9800008F80200E21C92B2304628F80250FEF796
:10B99000A2F805343B68A4B208EB04051A46014638
:10B9A000284646F05BF93B681C44A4B2A344D94541
:10B9B0002ADB55460135ADB29BE7336830469B68BC
:10B9C000984742F602139842F4D128F804A0304672
:10B9D000FEF780FA0234A4B2A9EB040980B21FFA80
:10B9E00089F9814528BF8146304608EB0405FEF7FA
:10B9F00073FA4A4601464C44284609F1020946F0CA
:10BA00002DF9A4B288F80190022C38D13A693B6C28
:10BA100012681B880A210091D2F8DC40D7E9031094
:10BA20000822A047D7F808D047E7984742F6030313
:10BA30009842BFD13046FEF751F802288346B9D16B
:10BA40003046FEF748F85A460146786846F0F8F85E
:10BA50000028AFD128F804A03046FEF759F8023488
:10BA6000A4B2A9EB04091FFA89F980B2814528BF65
:10BA70008146304608EB0405FEF748F8B9E7074B66
:10BA800018680368CDF80080D3F89450F968E3B2E1
:10BA90000422A847C6E700BF6C540700CC54070037
:10BAA0002DE9F043012B97B0044602AF0E46154630
:10BAB000E8460BD0036804220092D3F8DC40182239
:10BAC0000023A0475437BD46BDE8F083B0F83E11CF
:10BAD00041B33B6F1B78DB0724D5224B1868036802
:10BAE00001391B6A9847002281461C2104F1B000ED
:10BAF00001FB02F330F803C0B4452ED103F1B402C8
:10BB00002344224493F8B310381DFDF76DFE4846D8
:10BB1000B4F84431D4F84021391DFEF76CF9381DD2
:10BB2000FDF7AAFD00230735A4F83E31A4F84431FF
:10BB3000ED086B46A3EBC5039D4619238DF808302D
:10BB4000094B186802AA03680092D3F894400422B3
:10BB500001233146A047C546B4E70132052AC7D1C3
:10BB6000E0E700BF6C540700CC5407002DE9F04F0C
:10BB700087B002AF032B04460D467A601E46C7F815
:10BB80000CD00DD8036804220092D3F8DC401622B2
:10BB90000023A047D7F80CD01437BD46BDE8F08F7E
:10BBA000BB6B1B883B811FFA83F8BB6BB3F802B0F9
:10BBB0004B4BD3F80090D9F800304846DB699847E2
:10BBC00008F1FF318BB2834206D923680A22009222
:10BBD000D3F8DC60434620E0D9F8003048461B6AC1
:10BBE000984703689B688146984742F6030398424A
:10BBF00002D023680B22EAE74846FEF702F84045E8
:10BC00008246F6D14846FDF779FF03070AD4236838
:10BC100003210091D3F8DC605346162229462046C2
:10BC2000B047B7E7B4F83E31E3B948463B60FDF7AB
:10BC30006BFF01468246D4F8400146F099FE3B680E
:10BC40003A89A4F83E21C4F84001A4F84431524690
:10BC5000194646F02BF8B4F844315B4507D0236809
:10BC60000722B4E75345F6D023680E21D1E7331FEE
:10BC70005FFA83FA0BEB0A024846BA60FDF744FF0D
:10BC8000BA6880B28242EADCBB6BD4F8400152460B
:10BC9000191D584445F0E2FFB4F84421B96B0AEB92
:10BCA0000203A4F844317B6807336A46DB08A2EB41
:10BCB000C3039D4617238DF8083032460DF1090065
:10BCC00045F0CCFF074B186802AC02680094731C67
:10BCD000D2F89440DBB204222946A0475AE700BFBD
:10BCE0006C540700CC5407002DE9F04F9BB0012B9A
:10BCF0008A46039263D9249A023B1688059300F181
:10BD00008C0204460292B4F8B030534542D1D4F8C4
:10BD1000C450002D42D02846FEF701FE4FF0000926
:10BD20008046C14536DA49462846FEF7FAFD074601
:10BD3000FEF76AFEB0422AD23846FEF767FEB042EE
:10BD400025D33846FEF764FE249B0233804604F177
:10BD5000B4090025049345451CDA29463846FEF708
:10BD600059FE8346FEF7C9FCB0420ED14A4694F80C
:10BD7000B31007A8FDF738FD5846DDE9042307A9ED
:10BD8000FEF730FD07A8FDF777FC0135E3E709F181
:10BD90000109C6E7029B1C349C42B4D1039B1D2BB6
:10BDA0000DD11E238DF81C30064B186807AA0368B6
:10BDB0000092D3F89440042201235146A0471BB0BF
:10BDC000BDE8F08FCC5407002DE9F04F8FB002AFE3
:10BDD000C7E90021FB60B0F8A830F96807336A466C
:10BDE000DB08A2EBC30307F118059D4683462846EE
:10BDF00000F0DAFE0DF108090124BD60DBF8003027
:10BE0000CDF804904FF420520092D3F8BC507968DA
:10BE10004FF6FF7322465846A847054620B199F8C9
:10BE20000030112B04D001203437BD46BDE8F08F1F
:10BE300099F801307B61A3F1040802235FFA88F8C6
:10BE400009F102063B614FF6FF7A3B69AB4204DB26
:10BE50004FF6FF739A45D1D0E5E7FB68E3B9302090
:10BE60003DF034FF3146728831F8043B00920446BD
:10BE70004246FEF7AFFD21463868FEF739FD74886B
:10BE8000D7E904320134A4B2002C134408BF4FF0A8
:10BE9000000A3B611644D8E7B86800F0C4FE40458C
:10BEA000EDD1B86800F0BDFE42460146301D45F0B8
:10BEB000C7FE0028D3D0E2E72DE9F04F8DB0B0F8EF
:10BEC000A83004AFC7E9042107336A46DB08A2EBB8
:10BED000C3039D4682463869FEF721FD0DF1100926
:10BEE000F8604FF00008FB6898454ADA4146386927
:10BEF000FEF717FDB861FEF787FD0646B869FEF745
:10BF000085FDB860DAF80030CDF8049042F60302FF
:10BF10000092D3F8A8407969BB6832465046A047E2
:10BF2000054678B399F80030092B27D199F80130EC
:10BF3000FB61053BDBB27B6009F102044FF0020BB1
:10BF4000AB45DFDA38203DF0C1FEB4F80330029390
:10BF5000A37801932388009306467B697A68611D64
:10BF6000FEF744FB3146B869FEF762FDB4F80360A2
:10BF7000FB690136B6B29B441C44E1E708F10108B5
:10BF8000B1E701202437BD46BDE8F08F2DE9F04F21
:10BF90008FB0B0F8A83002AF0733C7E90421DB083F
:10BFA0006A46A2EBC3039D4602AB82463869FB6238
:10BFB000FEF7B5FC4FF0000BF860FB689B456CDAB0
:10BFC00059463869FEF7ADFC7862FEF71FFDB86090
:10BFD000786AFEF71DFD431E386200267B603B6ACF
:10BFE0009E4257DA3146786AFEF714FD7B68F861A5
:10BFF0009E4248D0711C786AFEF70CFD0546F86930
:10C00000FEF77BFB013084B2002D3ED02846FEF7C0
:10C0100074FBB862BB6AA3423AD3DAF80030FA6A1A
:10C020000092D3F898507969BB6A22465046A847D7
:10C03000054698B3FB6A1B78052B29D1FB6A93F858
:10C0400001904FEA8903BB61FB6A4FF0020903F1DB
:10C050000208A945E1DA20203DF038FE41460446B9
:10C0600031F8023B00937B690222FEF725FC214652
:10C07000F869FEF748FBB8F80040BB690134A4B288
:10C0800099449844E5E70025B9E7BB68BB62C1E77E
:10C090000136A4E70BF1010B8FE701203437BD46D1
:10C0A000BDE8F08F70B5002300F1B0041C2505FB3E
:10C0B00003F2A65A8E4204D00133052BF7D100209B
:10C0C00003E0104490F8C800C00970BDF0B5022A22
:10C0D00085B004460D4609D0036804220092D3F8C7
:10C0E000DC4002220023A04705B0F0BD1B88B0F859
:10C0F000A8209A4228BF1A46B03000231C2606FB0F
:10C1000003F1475AAF4212D10C44A4F8C020ADF855
:10C110000D20094A032310688DF80C30026803A92A
:10C120000091D2F8944029460422A047DCE701336D
:10C13000052BE4D1EBE700BFCC540700F0B500239A
:10C1400000F1B0051C2606FB03F42F5B8F4204D0E0
:10C150000133052BF7D1002003E0204480F8C820EC
:10C160000120F0BD042A15D1B0F848218A4211D12E
:10C1700090F84A211978013A8A420BD1D0F84C2123
:10C1800001211170D0F84C211B68C2F80130052341
:10C1900080F850317047022AF0B51ED1002200F11C
:10C1A000B0051C2606FB02F42F5B8F4216D1044417
:10C1B0001A88A4F8C020B0F848218A420DD190F81E
:10C1C0004A21032A09D1D0F84C110A70D0F84C1139
:10C1D0001B88A1F8013080F85021F0BD0132052AFA
:10C1E000E0D1E8E7012A38B50446154613D9B0F87E
:10C1F000480188420FD194F84A0105280BD1D4F8A0
:10C200004C110870D4F84C0119460130013545F045
:10C2100025FD84F8505138BD012A38B5044615462D
:10C2200013D9B0F8480188420FD194F84A01112877
:10C230000BD1D4F84C110870D4F84C0119460130D8
:10C24000013545F00BFD84F8505138BD38B5044632
:10C25000B0F84801884215460FD194F84A110B29CD
:10C260000BD1D4F84C010170D4F84C0119460130BF
:10C27000013545F0F3FC84F8505138BD38B504461B
:10C2800015469AB1B0F8480188420FD194F84A0196
:10C2900009280BD1D4F84C110870D4F84C01194678
:10C2A0000130013545F0DAFC84F8505138BD6AB9E7
:10C2B000B0F848318B4209D190F84A31132B01BFB5
:10C2C000D0F84C211370012380F850317047F0B53D
:10C2D00000241C2500F1B00605FB04F3F75A8F4239
:10C2E00004D00134052CF7D1002006E0C9331488AE
:10C2F000C452C11893788B700120F0BDF0B50024B2
:10C300001C2500F1B00605FB04F3F75A8F4204D058
:10C310000134052CF7D1002006E0B433184403683B
:10C320001360838893800120F0BDF0B500241C25A4
:10C3300000F1B00605FB04F3F75A8F4204D0013434
:10C34000052CF7D1002009E0BA3303441C46002134
:10C3500014F8010B18B901310629F9D1F0BD19689B
:10C3600011609B8893800120F8E7000070B50546B6
:10C3700090F8850094B0F8B1104B114C1868B4F8DF
:10C380004410036801391B6A984704F147020646C6
:10C3900094F8461001A8FDF727FA94F84D3004F1FF
:10C3A0004E0201A93046FDF726FD01A8FDF764F90C
:10C3B000002385F88530012014B070BD6C5407004F
:10C3C000486F00202DE9F04F9DB0984602AFB8F1BC
:10C3D0000A0F92460446796197F89020D7F8943076
:10C3E000C7F80CD00FD1022A17D00368042200929C
:10C3F000D3F8DC4042460023A047D7F80CD06C3776
:10C40000BD46BDE8F08F042A07D0036804220092DD
:10C41000D3F8DC400C220023EEE7B8F10A0FB3F8A2
:10C42000009018BFB3F802B0924B1D682B682846E5
:10C43000DB6908BF4FF0000B984709F1FF318BB261
:10C44000834207D923680A220092D3F8DC5042467F
:10C450004B4624E00AF107036A46DB08A2EBC3035C
:10C460009D46B8F10A0F6A460CBF0B230D2302F854
:10C47000083F2B683A611B6A2846984703689B6807
:10C4800005469847B0F5205F2BD1BBF1000F0AD0CD
:10C49000236804220092D3F8DC500B224B467969C2
:10C4A0002046A847A9E72846FDF718FB80462846FE
:10C4B000FDF711FB424601460DF1090045F0CEFBA8
:10C4C00008F101081FFA88F86B4B3A69186803688D
:10C4D0000092D3F8944079695FFA88F30422A04768
:10C4E0008BE742F6030398420AF1FF3A40F09F803F
:10C4F0002846FDF784FB48451ED1BBF1000F02D052
:10C5000023680B22A0E72846FDF7F8FA3B6958702C
:10C510002846FDF776FB3B6958802846FDF7DEFA92
:10C5200080462846FDF7D7FA4246014603A845F063
:10C5300095FB08F10408C5E72846FDF7DFFA8307F5
:10C5400002D4236802227FE72846FDF7DAFA10F0CA
:10C55000020022D0002204F1B0011C2000FB02F3F3
:10C560007E6931F803C0B44510D00132052AF5D1F7
:10C5700023680F220092D3F8DC3079691E464246C8
:10C580004B462046B04701231E4607E0234493F95B
:10C59000C830002BECDA0023F6E706462846FDF704
:10C5A000B7FA83B29B4502D3236807224CE780B2D7
:10C5B000A0EB0B008245A8BF82461FFA8AF3BB603E
:10C5C00004F18C03A1467B604FF001081FFA8AFA40
:10C5D000B9F8B0307A69934219D109F1B40299F8E7
:10C5E000B31007F11C00FDF7FFF8CDF800A03B6980
:10C5F0005A46434407F11C012846FDF7DDFB07F1CD
:10C600001C00FDF739F8BB6898441FFA88F87B686E
:10C6100009F11C099945DBD1002E3FF455AF424684
:10C620003969201D45F01AFB84F88480E5E6B0F5F1
:10C63000245F1BD12846FDF74DFC83B29B45B3D246
:10C6400080B2A0EB0B08C2452846A8BFC246FDF742
:10C6500043FC1FFA8AF200EB0B010AF1010A0DF10B
:10C66000090045F0FBFA1FFA8AF82DE74FF00108A0
:10C670002AE700BF6C540700CC5407002DE9F04FA7
:10C6800000230446A7B098464FF0FF35B0301C2673
:10C690004FF6FF7706FB03F2825A8A4208BF1D4617
:10C6A000BA4203F1010318BF08F10108052BF1D1CB
:10C6B0006B1C00F0B5801C236B4303F1B4072344CB
:10C6C000E619324693F8B3106846FDF78DF8B8F1D5
:10C6D000010F53D1544BD3F800804FF0000942F6BC
:10C6E000030AD8F800304046DB6998471FFA89FBF7
:10C6F00083453ED2D8F8003059461B6A40469847D9
:10C70000026892688346904750452FD19DF80420D7
:10C710008DF85020DDF80520CDF85120BDF8092016
:10C72000ADF855209DF80B20404B8DF857209DF813
:10C730000C208DF8582013930DF10D020DF15901C5
:10C740000DF1490052F804CB41F804CB8242F9D1F3
:10C7500012880A809DF84B208DF8972058460022B9
:10C7600013A9FDF768FB13A8FCF786FF09F101097F
:10C77000B7E70023A4F83E31A4F84431D4F85811A7
:10C7800061B32A4B13939DF804308DF85030DDF8D7
:10C790000530CDF85130BDF80930ADF855309DF871
:10C7A0000B308DF857309DF80C308DF858300DF166
:10C7B00059020DF10D030DF1490053F804CB42F875
:10C7C00004CB8342F9D11B8813809DF84B308DF840
:10C7D000973013A8884713A8FCF74EFF1C2303FBD0
:10C7E00005434FF6FF72C3F8B0200022E251B28039
:10C7F000D3F8C400A3F8C8201721A3F8C01083F809
:10C80000CA2083F8CB2010B103685B6898471C23CB
:10C8100003FB05440023C4F8C4306846FCF72CFF32
:10C8200027B0BDE8F08F00BF6C5407005C510700D3
:10C830002DE9F04F99B002AF1D4697F880303A606D
:10C84000012B04460E467B600DD8122D07D10368DC
:10C8500004220092D3F8DC402A460023A0475C372C
:10C86000BD46BDE8F08FD7F88430B3F800808E4B1A
:10C87000D3F800A0DAF800305046DB69984708F199
:10C88000FF318BB283420CD9122DE8D123680A22E2
:10C890000092D3F8DC902A46434631462046C847EA
:10C8A000DDE7DAF8003050461B6A984703689B685A
:10C8B0008146984742F6030B584540F0A080484611
:10C8C000FDF79FF98045484601D1122D6FD1FDF744
:10C8D00015F9020771D54846FDF713F910F0020A61
:10C8E00004F1B00B16D000221C2101FB02F33BF82F
:10C8F0000300B04267D00132052AF6D123680F2227
:10C900000092D3F8DCA01222434631462046D0479D
:10C910004FF0010A00231C2101FB03F23BF8020047
:10C92000B04268D17B68023B5FFA83FBD7F8843062
:10C93000A1180233B4327B6091F8B3102244BAF1EB
:10C94000000F48D0032084F88500A4F8448084F8C0
:10C9500046101168C4F847109288A4F84B200A22A8
:10C9600084F8852019465A4684F84DB004F14E00EB
:10C9700045F074F994F885200BEB020384F88530B8
:10C98000122D7FF46CAF3B6807336D46DB08A5EBD7
:10C99000C3039D46132302AA8DF80830BAF1000F95
:10C9A00076D02371012384F88430AD4657E7FDF734
:10C9B000A5F843077FF553AF8DE7122D7FF44FAFF6
:10C9C0002368032264E7234493F9C830002B95DAE7
:10C9D0004FF0000A9EE707F10C00FCF705FF484600
:10C9E0005B467A6807F10C01FDF705FA07F10C00C8
:10C9F000FCF742FEC4E70133052B8DD1C0E7D9F81F
:10CA0000003048469B689847B0F5245FD5D148462A
:10CA1000FDF764F80228D0D14846FDF75CF802889B
:10CA200042F602139A42C8D1DAF80030A8F10201A6
:10CA30001B6A5046984703689B688146984758454B
:10CA4000BBD100221C2104F1B00001FB02F330F83D
:10CA500003C0B44518D103F1B4022344224493F82F
:10CA6000B31007F10C00FCF7BFFED7F8843048463E
:10CA70005A8807F10C01FDF7DEF907F10C00FCF70D
:10CA8000FBFD4FF0000A7BE70132052ADDD1F8E714
:10CA9000064B186803680092D3F8944004220123DF
:10CAA0003146A04781E700BF6C540700CC54070013
:10CAB0001F4B70B5044640F8863B02F0FAFD04F1C6
:10CAC000870002F0F6FD1B4B04F1980503F11006F8
:10CAD000186859682A4603C20833B3421546F7D18D
